:100000000C9434000C9446000C9446000C9446006A
:100010000C9446000C9456000C9446000C94460038
:100020000C9446000C9446000C9446000C94460038
:100030000C9446000C9446000C9446000C94460028
:100040000C9446000C9446000C9446000C94460018
:100050000C9446000C9446000C9446000C94460008
:100060000C9446000C94460011241FBECFEFD8E03C
:10007000DEBFCDBF21E0A0E0B1E001C01D92A23003
:10008000B207E1F70E947A000C94B4000C940000CF
:100090004D9905C01092010110920001089581E070
:1000A00090E0909301018093000108951F920F92B8
:1000B0000FB60F9211242F933F934F935F936F933B
:1000C0007F938F939F93AF93BF93EF93FF930E9480
:1000D0004800FF91EF91BF91AF919F918F917F91D8
:1000E0006F915F914F913F912F910F900FBE0F90A5
:1000F0001F90189514B8259A249A239A55985D9ABA
:1001000080916900846080936900E99A8091680019
:1001100084608093680080916D00806280936D00A0
:100120000E944800789490E128E030E2409100017C
:10013000509101014130510579F485B1832785B98A
:100140002C982B984FEF59E688E141505040804061
:10015000E1F700C00000EACF2D9885B1892785B965
:0C01600085B1822785B9EECFF894FFCF5F
:00000001FF
